{
  "_format": "hh-sol-artifact-1",
  "contractName": "NftSmartContract",
  "sourceName": "contracts/NftSmartContract.sol",
  "abi": [
    {
      "inputs": [],
      "stateMutability": "nonpayable",
      "type": "constructor"
    },
    {
      "anonymous": false,
      "inputs": [
        {
          "indexed": true,
          "internalType": "address",
          "name": "owner",
          "type": "address"
        },
        {
          "indexed": true,
          "internalType": "address",
          "name": "approved",
          "type": "address"
        },
        {
          "indexed": true,
          "internalType": "uint256",
          "name": "tokenId",
          "type": "uint256"
        }
      ],
      "name": "Approval",
      "type": "event"
    },
    {
      "anonymous": false,
      "inputs": [
        {
          "indexed": true,
          "internalType": "address",
          "name": "owner",
          "type": "address"
        },
        {
          "indexed": true,
          "internalType": "address",
          "name": "operator",
          "type": "address"
        },
        {
          "indexed": false,
          "internalType": "bool",
          "name": "approved",
          "type": "bool"
        }
      ],
      "name": "ApprovalForAll",
      "type": "event"
    },
    {
      "anonymous": false,
      "inputs": [
        {
          "indexed": true,
          "internalType": "address",
          "name": "previousOwner",
          "type": "address"
        },
        {
          "indexed": true,
          "internalType": "address",
          "name": "newOwner",
          "type": "address"
        }
      ],
      "name": "OwnershipTransferred",
      "type": "event"
    },
    {
      "anonymous": false,
      "inputs": [
        {
          "indexed": true,
          "internalType": "address",
          "name": "from",
          "type": "address"
        },
        {
          "indexed": true,
          "internalType": "address",
          "name": "to",
          "type": "address"
        },
        {
          "indexed": true,
          "internalType": "uint256",
          "name": "tokenId",
          "type": "uint256"
        }
      ],
      "name": "Transfer",
      "type": "event"
    },
    {
      "inputs": [],
      "name": "MAX_MINT_PER_WALLET",
      "outputs": [
        {
          "internalType": "uint256",
          "name": "",
          "type": "uint256"
        }
      ],
      "stateMutability": "view",
      "type": "function"
    },
    {
      "inputs": [],
      "name": "MAX_TOKENS",
      "outputs": [
        {
          "internalType": "uint256",
          "name": "",
          "type": "uint256"
        }
      ],
      "stateMutability": "view",
      "type": "function"
    },
    {
      "inputs": [
        {
          "internalType": "address",
          "name": "to",
          "type": "address"
        },
        {
          "internalType": "uint256",
          "name": "tokenId",
          "type": "uint256"
        }
      ],
      "name": "approve",
      "outputs": [],
      "stateMutability": "nonpayable",
      "type": "function"
    },
    {
      "inputs": [
        {
          "internalType": "address",
          "name": "owner",
          "type": "address"
        }
      ],
      "name": "balanceOf",
      "outputs": [
        {
          "internalType": "uint256",
          "name": "",
          "type": "uint256"
        }
      ],
      "stateMutability": "view",
      "type": "function"
    },
    {
      "inputs": [],
      "name": "baseUri",
      "outputs": [
        {
          "internalType": "string",
          "name": "",
          "type": "string"
        }
      ],
      "stateMutability": "view",
      "type": "function"
    },
    {
      "inputs": [
        {
          "internalType": "uint256",
          "name": "tokenId",
          "type": "uint256"
        }
      ],
      "name": "getApproved",
      "outputs": [
        {
          "internalType": "address",
          "name": "",
          "type": "address"
        }
      ],
      "stateMutability": "view",
      "type": "function"
    },
    {
      "inputs": [
        {
          "internalType": "address",
          "name": "owner",
          "type": "address"
        },
        {
          "internalType": "address",
          "name": "operator",
          "type": "address"
        }
      ],
      "name": "isApprovedForAll",
      "outputs": [
        {
          "internalType": "bool",
          "name": "",
          "type": "bool"
        }
      ],
      "stateMutability": "view",
      "type": "function"
    },
    {
      "inputs": [
        {
          "internalType": "address",
          "name": "recipient",
          "type": "address"
        },
        {
          "internalType": "uint256",
          "name": "startDate",
          "type": "uint256"
        },
        {
          "internalType": "uint256",
          "name": "endDate",
          "type": "uint256"
        },
        {
          "internalType": "string",
          "name": "receipt",
          "type": "string"
        },
        {
          "internalType": "string",
          "name": "tokenUri",
          "type": "string"
        }
      ],
      "name": "mint",
      "outputs": [],
      "stateMutability": "payable",
      "type": "function"
    },
    {
      "inputs": [],
      "name": "name",
      "outputs": [
        {
          "internalType": "string",
          "name": "",
          "type": "string"
        }
      ],
      "stateMutability": "view",
      "type": "function"
    },
    {
      "inputs": [],
      "name": "owner",
      "outputs": [
        {
          "internalType": "address",
          "name": "",
          "type": "address"
        }
      ],
      "stateMutability": "view",
      "type": "function"
    },
    {
      "inputs": [
        {
          "internalType": "uint256",
          "name": "tokenId",
          "type": "uint256"
        }
      ],
      "name": "ownerOf",
      "outputs": [
        {
          "internalType": "address",
          "name": "",
          "type": "address"
        }
      ],
      "stateMutability": "view",
      "type": "function"
    },
    {
      "inputs": [],
      "name": "price",
      "outputs": [
        {
          "internalType": "uint256",
          "name": "",
          "type": "uint256"
        }
      ],
      "stateMutability": "view",
      "type": "function"
    },
    {
      "inputs": [],
      "name": "renounceOwnership",
      "outputs": [],
      "stateMutability": "nonpayable",
      "type": "function"
    },
    {
      "inputs": [
        {
          "internalType": "address",
          "name": "from",
          "type": "address"
        },
        {
          "internalType": "address",
          "name": "to",
          "type": "address"
        },
        {
          "internalType": "uint256",
          "name": "tokenId",
          "type": "uint256"
        }
      ],
      "name": "safeTransferFrom",
      "outputs": [],
      "stateMutability": "nonpayable",
      "type": "function"
    },
    {
      "inputs": [
        {
          "internalType": "address",
          "name": "from",
          "type": "address"
        },
        {
          "internalType": "address",
          "name": "to",
          "type": "address"
        },
        {
          "internalType": "uint256",
          "name": "tokenId",
          "type": "uint256"
        },
        {
          "internalType": "bytes",
          "name": "data",
          "type": "bytes"
        }
      ],
      "name": "safeTransferFrom",
      "outputs": [],
      "stateMutability": "nonpayable",
      "type": "function"
    },
    {
      "inputs": [
        {
          "internalType": "address",
          "name": "operator",
          "type": "address"
        },
        {
          "internalType": "bool",
          "name": "approved",
          "type": "bool"
        }
      ],
      "name": "setApprovalForAll",
      "outputs": [],
      "stateMutability": "nonpayable",
      "type": "function"
    },
    {
      "inputs": [
        {
          "internalType": "string",
          "name": "_baseUri",
          "type": "string"
        }
      ],
      "name": "setBaseUri",
      "outputs": [],
      "stateMutability": "nonpayable",
      "type": "function"
    },
    {
      "inputs": [
        {
          "internalType": "uint256",
          "name": "_price",
          "type": "uint256"
        }
      ],
      "name": "setPrice",
      "outputs": [],
      "stateMutability": "nonpayable",
      "type": "function"
    },
    {
      "inputs": [
        {
          "internalType": "bytes4",
          "name": "interfaceId",
          "type": "bytes4"
        }
      ],
      "name": "supportsInterface",
      "outputs": [
        {
          "internalType": "bool",
          "name": "",
          "type": "bool"
        }
      ],
      "stateMutability": "view",
      "type": "function"
    },
    {
      "inputs": [],
      "name": "symbol",
      "outputs": [
        {
          "internalType": "string",
          "name": "",
          "type": "string"
        }
      ],
      "stateMutability": "view",
      "type": "function"
    },
    {
      "inputs": [
        {
          "internalType": "uint256",
          "name": "tokenId",
          "type": "uint256"
        }
      ],
      "name": "tokenURI",
      "outputs": [
        {
          "internalType": "string",
          "name": "",
          "type": "string"
        }
      ],
      "stateMutability": "view",
      "type": "function"
    },
    {
      "inputs": [],
      "name": "totalSupply",
      "outputs": [
        {
          "internalType": "uint256",
          "name": "",
          "type": "uint256"
        }
      ],
      "stateMutability": "view",
      "type": "function"
    },
    {
      "inputs": [
        {
          "internalType": "address",
          "name": "from",
          "type": "address"
        },
        {
          "internalType": "address",
          "name": "to",
          "type": "address"
        },
        {
          "internalType": "uint256",
          "name": "tokenId",
          "type": "uint256"
        }
      ],
      "name": "transferFrom",
      "outputs": [],
      "stateMutability": "nonpayable",
      "type": "function"
    },
    {
      "inputs": [
        {
          "internalType": "address",
          "name": "newOwner",
          "type": "address"
        }
      ],
      "name": "transferOwnership",
      "outputs": [],
      "stateMutability": "nonpayable",
      "type": "function"
    }
  ],
  "bytecode": "0x608060405266038d7ea4c680006008553480156200001c57600080fd5b506040518060400160405280601081526020017f4e4654534d415254434f4e5452414354000000000000000000000000000000008152506040518060400160405280600381526020017f4e465400000000000000000000000000000000000000000000000000000000008152508160009080519060200190620000a1929190620001b8565b508060019080519060200190620000ba929190620001b8565b505050620000dd620000d1620000ea60201b60201c565b620000f260201b60201c565b42600781905550620002cd565b600033905090565b6000600660009054906101000a900473ffffffffffffffffffffffffffffffffffffffff16905081600660006101000a81548173ffffffffffffffffffffffffffffffffffffffff021916908373ffffffffffffffffffffffffffffffffffffffff1602179055508173ffffffffffffffffffffffffffffffffffffffff168173ffffffffffffffffffffffffffffffffffffffff167f8be0079c531659141344cd1fd0a4f28419497f9722a3daafe3b4186f6b6457e060405160405180910390a35050565b828054620001c69062000297565b90600052602060002090601f016020900481019282620001ea576000855562000236565b82601f106200020557805160ff191683800117855562000236565b8280016001018555821562000236579182015b828111156200023557825182559160200191906001019062000218565b5b50905062000245919062000249565b5090565b5b80821115620002645760008160009055506001016200024a565b5090565b7f4e487b7100000000000000000000000000000000000000000000000000000000600052602260045260246000fd5b60006002820490506001821680620002b057607f821691505b60208210811415620002c757620002c662000268565b5b50919050565b61324180620002dd6000396000f3fe60806040526004361061014b5760003560e01c806391b7f5ed116100b6578063b19960e61161006f578063b19960e61461046f578063b88d4fde1461049a578063c87b56dd146104c3578063e985e9c514610500578063f2fde38b1461053d578063f47c84c5146105665761014b565b806391b7f5ed1461037357806395d89b411461039c5780639abc8320146103c7578063a035b1fe146103f2578063a0bcfc7f1461041d578063a22cb465146104465761014b565b806342842e0e1161010857806342842e0e146102725780636352211e1461029b5780636d013618146102d857806370a08231146102f4578063715018a6146103315780638da5cb5b146103485761014b565b806301ffc9a71461015057806306fdde031461018d578063081812fc146101b8578063095ea7b3146101f557806318160ddd1461021e57806323b872dd14610249575b600080fd5b34801561015c57600080fd5b5061017760048036038101906101729190612086565b610591565b60405161018491906120ce565b60405180910390f35b34801561019957600080fd5b506101a2610673565b6040516101af9190612182565b60405180910390f35b3480156101c457600080fd5b506101df60048036038101906101da91906121da565b610705565b6040516101ec9190612248565b60405180910390f35b34801561020157600080fd5b5061021c6004803603810190610217919061228f565b61074b565b005b34801561022a57600080fd5b50610233610863565b60405161024091906122de565b60405180910390f35b34801561025557600080fd5b50610270600480360381019061026b91906122f9565b610869565b005b34801561027e57600080fd5b50610299600480360381019061029491906122f9565b6108c9565b005b3480156102a757600080fd5b506102c260048036038101906102bd91906121da565b6108e9565b6040516102cf9190612248565b60405180910390f35b6102f260048036038101906102ed9190612481565b610970565b005b34801561030057600080fd5b5061031b60048036038101906103169190612534565b610b98565b60405161032891906122de565b60405180910390f35b34801561033d57600080fd5b50610346610c50565b005b34801561035457600080fd5b5061035d610c64565b60405161036a9190612248565b60405180910390f35b34801561037f57600080fd5b5061039a600480360381019061039591906121da565b610c8e565b005b3480156103a857600080fd5b506103b1610ca0565b6040516103be9190612182565b60405180910390f35b3480156103d357600080fd5b506103dc610d32565b6040516103e99190612182565b60405180910390f35b3480156103fe57600080fd5b50610407610dc0565b60405161041491906122de565b60405180910390f35b34801561042957600080fd5b50610444600480360381019061043f9190612561565b610dc6565b005b34801561045257600080fd5b5061046d600480360381019061046891906125d6565b610de8565b005b34801561047b57600080fd5b50610484610dfe565b60405161049191906122de565b60405180910390f35b3480156104a657600080fd5b506104c160048036038101906104bc91906126b7565b610e03565b005b3480156104cf57600080fd5b506104ea60048036038101906104e591906121da565b610e65565b6040516104f79190612182565b60405180910390f35b34801561050c57600080fd5b506105276004803603810190610522919061273a565b610ecd565b60405161053491906120ce565b60405180910390f35b34801561054957600080fd5b50610564600480360381019061055f9190612534565b610f61565b005b34801561057257600080fd5b5061057b610fe5565b60405161058891906122de565b60405180910390f35b60007f80ac58cd000000000000000000000000000000000000000000000000000000007bffffffffffffffffffffffffffffffffffffffffffffffffffffffff1916827bffffffffffffffffffffffffffffffffffffffffffffffffffffffff1916148061065c57507f5b5e139f000000000000000000000000000000000000000000000000000000007bffffffffffffffffffffffffffffffffffffffffffffffffffffffff1916827bffffffffffffffffffffffffffffffffffffffffffffffffffffffff1916145b8061066c575061066b82610feb565b5b9050919050565b606060008054610682906127a9565b80601f01602080910402602001604051908101604052809291908181526020018280546106ae906127a9565b80156106fb5780601f106106d0576101008083540402835291602001916106fb565b820191906000526020600020905b8154815290600101906020018083116106de57829003601f168201915b5050505050905090565b600061071082611055565b6004600083815260200190815260200160002060009054906101000a900473ffffffffffffffffffffffffffffffffffffffff169050919050565b6000610756826108e9565b90508073ffffffffffffffffffffffffffffffffffffffff168373ffffffffffffffffffffffffffffffffffffffff1614156107c7576040517f08c379a00000000000000000000000000000000000000000000000000000000081526004016107be9061284d565b60405180910390fd5b8073ffffffffffffffffffffffffffffffffffffffff166107e66110a0565b73ffffffffffffffffffffffffffffffffffffffff16148061081557506108148161080f6110a0565b610ecd565b5b610854576040517f08c379a000000000000000000000000000000000000000000000000000000000815260040161084b906128df565b60405180910390fd5b61085e83836110a8565b505050565b60095481565b61087a6108746110a0565b82611161565b6108b9576040517f08c379a00000000000000000000000000000000000000000000000000000000081526004016108b090612971565b60405180910390fd5b6108c48383836111f6565b505050565b6108e483838360405180602001604052806000815250610e03565b505050565b6000806108f5836114f0565b9050600073ffffffffffffffffffffffffffffffffffffffff168173ffffffffffffffffffffffffffffffffffffffff161415610967576040517f08c379a000000000000000000000000000000000000000000000000000000000815260040161095e906129dd565b60405180910390fd5b80915050919050565b60075484106109b4576040517f08c379a00000000000000000000000000000000000000000000000000000000081526004016109ab90612a49565b60405180910390fd5b60075483116109f8576040517f08c379a00000000000000000000000000000000000000000000000000000000081526004016109ef90612a49565b60405180910390fd5b600a8060008773ffffffffffffffffffffffffffffffffffffffff1673ffffffffffffffffffffffffffffffffffffffff1681526020019081526020016000205410610a79576040517f08c379a0000000000000000000000000000000000000000000000000000000008152600401610a7090612ab5565b60405180910390fd5b60006009549050612710600582610a909190612b04565b1115610ad1576040517f08c379a0000000000000000000000000000000000000000000000000000000008152600401610ac890612ba6565b60405180910390fd5b81600b9080519060200190610ae7929190611f77565b506000600190505b60058111610b1e57610b0d878284610b079190612b04565b8661152d565b80610b1790612bc6565b9050610aef565b506001600a60008873ffffffffffffffffffffffffffffffffffffffff1673ffffffffffffffffffffffffffffffffffffffff1681526020019081526020016000206000828254610b6f9190612b04565b92505081905550600560096000828254610b899190612b04565b92505081905550505050505050565b60008073ffffffffffffffffffffffffffffffffffffffff168273ffffffffffffffffffffffffffffffffffffffff161415610c09576040517f08c379a0000000000000000000000000000000000000000000000000000000008152600401610c0090612c81565b60405180910390fd5b600360008373ffffffffffffffffffffffffffffffffffffffff1673ffffffffffffffffffffffffffffffffffffffff168152602001908152602001600020549050919050565b610c58611588565b610c626000611606565b565b6000600660009054906101000a900473ffffffffffffffffffffffffffffffffffffffff16905090565b610c96611588565b8060088190555050565b606060018054610caf906127a9565b80601f0160208091040260200160405190810160405280929190818152602001828054610cdb906127a9565b8015610d285780601f10610cfd57610100808354040283529160200191610d28565b820191906000526020600020905b815481529060010190602001808311610d0b57829003601f168201915b5050505050905090565b600b8054610d3f906127a9565b80601f0160208091040260200160405190810160405280929190818152602001828054610d6b906127a9565b8015610db85780601f10610d8d57610100808354040283529160200191610db8565b820191906000526020600020905b815481529060010190602001808311610d9b57829003601f168201915b505050505081565b60085481565b610dce611588565b80600b9080519060200190610de4929190611f77565b5050565b610dfa610df36110a0565b83836116cc565b5050565b600a81565b610e14610e0e6110a0565b83611161565b610e53576040517f08c379a0000000000000000000000000000000000000000000000000000000008152600401610e4a90612971565b60405180910390fd5b610e5f84848484611839565b50505050565b6060610e7082611055565b6000610e7a611895565b90506000815111610e9a5760405180602001604052806000815250610ec5565b80610ea484611927565b604051602001610eb5929190612cdd565b6040516020818303038152906040525b915050919050565b6000600560008473ffffffffffffffffffffffffffffffffffffffff1673ffffffffffffffffffffffffffffffffffffffff16815260200190815260200160002060008373ffffffffffffffffffffffffffffffffffffffff1673ffffffffffffffffffffffffffffffffffffffff16815260200190815260200160002060009054906101000a900460ff16905092915050565b610f69611588565b600073ffffffffffffffffffffffffffffffffffffffff168173ffffffffffffffffffffffffffffffffffffffff161415610fd9576040517f08c379a0000000000000000000000000000000000000000000000000000000008152600401610fd090612d73565b60405180910390fd5b610fe281611606565b50565b61271081565b60007f01ffc9a7000000000000000000000000000000000000000000000000000000007bffffffffffffffffffffffffffffffffffffffffffffffffffffffff1916827bffffffffffffffffffffffffffffffffffffffffffffffffffffffff1916149050919050565b61105e816119ff565b61109d576040517f08c379a0000000000000000000000000000000000000000000000000000000008152600401611094906129dd565b60405180910390fd5b50565b600033905090565b816004600083815260200190815260200160002060006101000a81548173ffffffffffffffffffffffffffffffffffffffff021916908373ffffffffffffffffffffffffffffffffffffffff160217905550808273ffffffffffffffffffffffffffffffffffffffff1661111b836108e9565b73ffffffffffffffffffffffffffffffffffffffff167f8c5be1e5ebec7d5bd14f71427d1e84f3dd0314c0f7b2291e5b200ac8c7c3b92560405160405180910390a45050565b60008061116d836108e9565b90508073ffffffffffffffffffffffffffffffffffffffff168473ffffffffffffffffffffffffffffffffffffffff1614806111af57506111ae8185610ecd565b5b806111ed57508373ffffffffffffffffffffffffffffffffffffffff166111d584610705565b73ffffffffffffffffffffffffffffffffffffffff16145b91505092915050565b8273ffffffffffffffffffffffffffffffffffffffff16611216826108e9565b73ffffffffffffffffffffffffffffffffffffffff161461126c576040517f08c379a000000000000000000000000000000000000000000000000000000000815260040161126390612e05565b60405180910390fd5b600073ffffffffffffffffffffffffffffffffffffffff168273ffffffffffffffffffffffffffffffffffffffff1614156112dc576040517f08c379a00000000000000000000000000000000000000000000000000000000081526004016112d390612e97565b60405180910390fd5b6112e98383836001611a40565b8273ffffffffffffffffffffffffffffffffffffffff16611309826108e9565b73ffffffffffffffffffffffffffffffffffffffff161461135f576040517f08c379a000000000000000000000000000000000000000000000000000000000815260040161135690612e05565b60405180910390fd5b6004600082815260200190815260200160002060006101000a81549073ffffffffffffffffffffffffffffffffffffffff02191690556001600360008573ffffffffffffffffffffffffffffffffffffffff1673ffffffffffffffffffffffffffffffffffffffff168152602001908152602001600020600082825403925050819055506001600360008473ffffffffffffffffffffffffffffffffffffffff1673ffffffffffffffffffffffffffffffffffffffff16815260200190815260200160002060008282540192505081905550816002600083815260200190815260200160002060006101000a81548173ffffffffffffffffffffffffffffffffffffffff021916908373ffffffffffffffffffffffffffffffffffffffff160217905550808273ffffffffffffffffffffffffffffffffffffffff168473ffffffffffffffffffffffffffffffffffffffff167fddf252ad1be2c89b69c2b068fc378daa952ba7f163c4a11628f55a4df523b3ef60405160405180910390a46114eb8383836001611a46565b505050565b60006002600083815260200190815260200160002060009054906101000a900473ffffffffffffffffffffffffffffffffffffffff169050919050565b6115378383611a4c565b6115446000848484611c6a565b611583576040517f08c379a000000000000000000000000000000000000000000000000000000000815260040161157a90612f29565b60405180910390fd5b505050565b6115906110a0565b73ffffffffffffffffffffffffffffffffffffffff166115ae610c64565b73ffffffffffffffffffffffffffffffffffffffff1614611604576040517f08c379a00000000000000000000000000000000000000000000000000000000081526004016115fb90612f95565b60405180910390fd5b565b6000600660009054906101000a900473ffffffffffffffffffffffffffffffffffffffff16905081600660006101000a81548173ffffffffffffffffffffffffffffffffffffffff021916908373ffffffffffffffffffffffffffffffffffffffff1602179055508173ffffffffffffffffffffffffffffffffffffffff168173ffffffffffffffffffffffffffffffffffffffff167f8be0079c531659141344cd1fd0a4f28419497f9722a3daafe3b4186f6b6457e060405160405180910390a35050565b8173ffffffffffffffffffffffffffffffffffffffff168373ffffffffffffffffffffffffffffffffffffffff16141561173b576040517f08c379a000000000000000000000000000000000000000000000000000000000815260040161173290613001565b60405180910390fd5b80600560008573ffffffffffffffffffffffffffffffffffffffff1673ffffffffffffffffffffffffffffffffffffffff16815260200190815260200160002060008473ffffffffffffffffffffffffffffffffffffffff1673ffffffffffffffffffffffffffffffffffffffff16815260200190815260200160002060006101000a81548160ff0219169083151502179055508173ffffffffffffffffffffffffffffffffffffffff168373ffffffffffffffffffffffffffffffffffffffff167f17307eab39ab6107e8899845ad3d59bd9653f200f220920489ca2b5937696c318360405161182c91906120ce565b60405180910390a3505050565b6118448484846111f6565b61185084848484611c6a565b61188f576040517f08c379a000000000000000000000000000000000000000000000000000000000815260040161188690612f29565b60405180910390fd5b50505050565b6060600b80546118a4906127a9565b80601f01602080910402602001604051908101604052809291908181526020018280546118d0906127a9565b801561191d5780601f106118f25761010080835404028352916020019161191d565b820191906000526020600020905b81548152906001019060200180831161190057829003601f168201915b5050505050905090565b60606000600161193684611e01565b01905060008167ffffffffffffffff81111561195557611954612356565b5b6040519080825280601f01601f1916602001820160405280156119875781602001600182028036833780820191505090505b509050600082602001820190505b6001156119f4578080600190039150507f3031323334353637383961626364656600000000000000000000000000000000600a86061a8153600a85816119de576119dd613021565b5b04945060008514156119ef576119f4565b611995565b819350505050919050565b60008073ffffffffffffffffffffffffffffffffffffffff16611a21836114f0565b73ffffffffffffffffffffffffffffffffffffffff1614159050919050565b50505050565b50505050565b600073ffffffffffffffffffffffffffffffffffffffff168273ffffffffffffffffffffffffffffffffffffffff161415611abc576040517f08c379a0000000000000000000000000000000000000000000000000000000008152600401611ab39061309c565b60405180910390fd5b611ac5816119ff565b15611b05576040517f08c379a0000000000000000000000000000000000000000000000000000000008152600401611afc90613108565b60405180910390fd5b611b13600083836001611a40565b611b1c816119ff565b15611b5c576040517f08c379a0000000000000000000000000000000000000000000000000000000008152600401611b5390613108565b60405180910390fd5b6001600360008473ffffffffffffffffffffffffffffffffffffffff1673ffffffffffffffffffffffffffffffffffffffff16815260200190815260200160002060008282540192505081905550816002600083815260200190815260200160002060006101000a81548173ffffffffffffffffffffffffffffffffffffffff021916908373ffffffffffffffffffffffffffffffffffffffff160217905550808273ffffffffffffffffffffffffffffffffffffffff16600073ffffffffffffffffffffffffffffffffffffffff167fddf252ad1be2c89b69c2b068fc378daa952ba7f163c4a11628f55a4df523b3ef60405160405180910390a4611c66600083836001611a46565b5050565b6000611c8b8473ffffffffffffffffffffffffffffffffffffffff16611f54565b15611df4578373ffffffffffffffffffffffffffffffffffffffff1663150b7a02611cb46110a0565b8786866040518563ffffffff1660e01b8152600401611cd6949392919061317d565b602060405180830381600087803b158015611cf057600080fd5b505af1925050508015611d2157506040513d601f19601f82011682018060405250810190611d1e91906131de565b60015b611da4573d8060008114611d51576040519150601f19603f3d011682016040523d82523d6000602084013e611d56565b606091505b50600081511415611d9c576040517f08c379a0000000000000000000000000000000000000000000000000000000008152600401611d9390612f29565b60405180910390fd5b805181602001fd5b63150b7a0260e01b7bffffffffffffffffffffffffffffffffffffffffffffffffffffffff1916817bffffffffffffffffffffffffffffffffffffffffffffffffffffffff191614915050611df9565b600190505b949350505050565b600080600090507a184f03e93ff9f4daa797ed6e38ed64bf6a1f0100000000000000008310611e5f577a184f03e93ff9f4daa797ed6e38ed64bf6a1f0100000000000000008381611e5557611e54613021565b5b0492506040810190505b6d04ee2d6d415b85acef81000000008310611e9c576d04ee2d6d415b85acef81000000008381611e9257611e91613021565b5b0492506020810190505b662386f26fc100008310611ecb57662386f26fc100008381611ec157611ec0613021565b5b0492506010810190505b6305f5e1008310611ef4576305f5e1008381611eea57611ee9613021565b5b0492506008810190505b6127108310611f19576127108381611f0f57611f0e613021565b5b0492506004810190505b60648310611f3c5760648381611f3257611f31613021565b5b0492506002810190505b600a8310611f4b576001810190505b80915050919050565b6000808273ffffffffffffffffffffffffffffffffffffffff163b119050919050565b828054611f83906127a9565b90600052602060002090601f016020900481019282611fa55760008555611fec565b82601f10611fbe57805160ff1916838001178555611fec565b82800160010185558215611fec579182015b82811115611feb578251825591602001919060010190611fd0565b5b509050611ff99190611ffd565b5090565b5b80821115612016576000816000905550600101611ffe565b5090565b6000604051905090565b600080fd5b600080fd5b60007fffffffff0000000000000000000000000000000000000000000000000000000082169050919050565b6120638161202e565b811461206e57600080fd5b50565b6000813590506120808161205a565b92915050565b60006020828403121561209c5761209b612024565b5b60006120aa84828501612071565b91505092915050565b60008115159050919050565b6120c8816120b3565b82525050565b60006020820190506120e360008301846120bf565b92915050565b600081519050919050565b600082825260208201905092915050565b60005b83811015612123578082015181840152602081019050612108565b83811115612132576000848401525b50505050565b6000601f19601f8301169050919050565b6000612154826120e9565b61215e81856120f4565b935061216e818560208601612105565b61217781612138565b840191505092915050565b6000602082019050818103600083015261219c8184612149565b905092915050565b6000819050919050565b6121b7816121a4565b81146121c257600080fd5b50565b6000813590506121d4816121ae565b92915050565b6000602082840312156121f0576121ef612024565b5b60006121fe848285016121c5565b91505092915050565b600073ffffffffffffffffffffffffffffffffffffffff82169050919050565b600061223282612207565b9050919050565b61224281612227565b82525050565b600060208201905061225d6000830184612239565b92915050565b61226c81612227565b811461227757600080fd5b50565b60008135905061228981612263565b92915050565b600080604083850312156122a6576122a5612024565b5b60006122b48582860161227a565b92505060206122c5858286016121c5565b9150509250929050565b6122d8816121a4565b82525050565b60006020820190506122f360008301846122cf565b92915050565b60008060006060848603121561231257612311612024565b5b60006123208682870161227a565b93505060206123318682870161227a565b9250506040612342868287016121c5565b9150509250925092565b600080fd5b600080fd5b7f4e487b7100000000000000000000000000000000000000000000000000000000600052604160045260246000fd5b61238e82612138565b810181811067ffffffffffffffff821117156123ad576123ac612356565b5b80604052505050565b60006123c061201a565b90506123cc8282612385565b919050565b600067ffffffffffffffff8211156123ec576123eb612356565b5b6123f582612138565b9050602081019050919050565b82818337600083830152505050565b600061242461241f846123d1565b6123b6565b9050828152602081018484840111156124405761243f612351565b5b61244b848285612402565b509392505050565b600082601f8301126124685761246761234c565b5b8135612478848260208601612411565b91505092915050565b600080600080600060a0868803121561249d5761249c612024565b5b60006124ab8882890161227a565b95505060206124bc888289016121c5565b94505060406124cd888289016121c5565b935050606086013567ffffffffffffffff8111156124ee576124ed612029565b5b6124fa88828901612453565b925050608086013567ffffffffffffffff81111561251b5761251a612029565b5b61252788828901612453565b9150509295509295909350565b60006020828403121561254a57612549612024565b5b60006125588482850161227a565b91505092915050565b60006020828403121561257757612576612024565b5b600082013567ffffffffffffffff81111561259557612594612029565b5b6125a184828501612453565b91505092915050565b6125b3816120b3565b81146125be57600080fd5b50565b6000813590506125d0816125aa565b92915050565b600080604083850312156125ed576125ec612024565b5b60006125fb8582860161227a565b925050602061260c858286016125c1565b9150509250929050565b600067ffffffffffffffff82111561263157612630612356565b5b61263a82612138565b9050602081019050919050565b600061265a61265584612616565b6123b6565b90508281526020810184848401111561267657612675612351565b5b612681848285612402565b509392505050565b600082601f83011261269e5761269d61234c565b5b81356126ae848260208601612647565b91505092915050565b600080600080608085870312156126d1576126d0612024565b5b60006126df8782880161227a565b94505060206126f08782880161227a565b9350506040612701878288016121c5565b925050606085013567ffffffffffffffff81111561272257612721612029565b5b61272e87828801612689565b91505092959194509250565b6000806040838503121561275157612750612024565b5b600061275f8582860161227a565b92505060206127708582860161227a565b9150509250929050565b7f4e487b7100000000000000000000000000000000000000000000000000000000600052602260045260246000fd5b600060028204905060018216806127c157607f821691505b602082108114156127d5576127d461277a565b5b50919050565b7f4552433732313a20617070726f76616c20746f2063757272656e74206f776e6560008201527f7200000000000000000000000000000000000000000000000000000000000000602082015250565b60006128376021836120f4565b9150612842826127db565b604082019050919050565b600060208201905081810360008301526128668161282a565b9050919050565b7f4552433732313a20617070726f76652063616c6c6572206973206e6f7420746f60008201527f6b656e206f776e6572206f7220617070726f76656420666f7220616c6c000000602082015250565b60006128c9603d836120f4565b91506128d48261286d565b604082019050919050565b600060208201905081810360008301526128f8816128bc565b9050919050565b7f4552433732313a2063616c6c6572206973206e6f7420746f6b656e206f776e6560008201527f72206f7220617070726f76656400000000000000000000000000000000000000602082015250565b600061295b602d836120f4565b9150612966826128ff565b604082019050919050565b6000602082019050818103600083015261298a8161294e565b9050919050565b7f4552433732313a20696e76616c696420746f6b656e2049440000000000000000600082015250565b60006129c76018836120f4565b91506129d282612991565b602082019050919050565b600060208201905081810360008301526129f6816129ba565b9050919050565b7f4d696e74206475726174696f6e206e6f74206f6e6c792076616c696400000000600082015250565b6000612a33601c836120f4565b9150612a3e826129fd565b602082019050919050565b60006020820190508181036000830152612a6281612a26565b9050919050565b7f4d696e74206f6e6c79206f6e636520666f7220656163682077616c6c65740000600082015250565b6000612a9f601e836120f4565b9150612aaa82612a69565b602082019050919050565b60006020820190508181036000830152612ace81612a92565b9050919050565b7f4e487b7100000000000000000000000000000000000000000000000000000000600052601160045260246000fd5b6000612b0f826121a4565b9150612b1a836121a4565b9250827fffffffffffffffffffffffffffffffffffffffffffffffffffffffffffffffff03821115612b4f57612b4e612ad5565b5b828201905092915050565b7f4578636565647320746f74616c20737570706c792e0000000000000000000000600082015250565b6000612b906015836120f4565b9150612b9b82612b5a565b602082019050919050565b60006020820190508181036000830152612bbf81612b83565b9050919050565b6000612bd1826121a4565b91507fffffffffffffffffffffffffffffffffffffffffffffffffffffffffffffffff821415612c0457612c03612ad5565b5b600182019050919050565b7f4552433732313a2061646472657373207a65726f206973206e6f74206120766160008201527f6c6964206f776e65720000000000000000000000000000000000000000000000602082015250565b6000612c6b6029836120f4565b9150612c7682612c0f565b604082019050919050565b60006020820190508181036000830152612c9a81612c5e565b9050919050565b600081905092915050565b6000612cb7826120e9565b612cc18185612ca1565b9350612cd1818560208601612105565b80840191505092915050565b6000612ce98285612cac565b9150612cf58284612cac565b91508190509392505050565b7f4f776e61626c653a206e6577206f776e657220697320746865207a65726f206160008201527f6464726573730000000000000000000000000000000000000000000000000000602082015250565b6000612d5d6026836120f4565b9150612d6882612d01565b604082019050919050565b60006020820190508181036000830152612d8c81612d50565b9050919050565b7f4552433732313a207472616e736665722066726f6d20696e636f72726563742060008201527f6f776e6572000000000000000000000000000000000000000000000000000000602082015250565b6000612def6025836120f4565b9150612dfa82612d93565b604082019050919050565b60006020820190508181036000830152612e1e81612de2565b9050919050565b7f4552433732313a207472616e7366657220746f20746865207a65726f2061646460008201527f7265737300000000000000000000000000000000000000000000000000000000602082015250565b6000612e816024836120f4565b9150612e8c82612e25565b604082019050919050565b60006020820190508181036000830152612eb081612e74565b9050919050565b7f4552433732313a207472616e7366657220746f206e6f6e20455243373231526560008201527f63656976657220696d706c656d656e7465720000000000000000000000000000602082015250565b6000612f136032836120f4565b9150612f1e82612eb7565b604082019050919050565b60006020820190508181036000830152612f4281612f06565b9050919050565b7f4f776e61626c653a2063616c6c6572206973206e6f7420746865206f776e6572600082015250565b6000612f7f6020836120f4565b9150612f8a82612f49565b602082019050919050565b60006020820190508181036000830152612fae81612f72565b9050919050565b7f4552433732313a20617070726f766520746f2063616c6c657200000000000000600082015250565b6000612feb6019836120f4565b9150612ff682612fb5565b602082019050919050565b6000602082019050818103600083015261301a81612fde565b9050919050565b7f4e487b7100000000000000000000000000000000000000000000000000000000600052601260045260246000fd5b7f4552433732313a206d696e7420746f20746865207a65726f2061646472657373600082015250565b60006130866020836120f4565b915061309182613050565b602082019050919050565b600060208201905081810360008301526130b581613079565b9050919050565b7f4552433732313a20746f6b656e20616c7265616479206d696e74656400000000600082015250565b60006130f2601c836120f4565b91506130fd826130bc565b602082019050919050565b60006020820190508181036000830152613121816130e5565b9050919050565b600081519050919050565b600082825260208201905092915050565b600061314f82613128565b6131598185613133565b9350613169818560208601612105565b61317281612138565b840191505092915050565b60006080820190506131926000830187612239565b61319f6020830186612239565b6131ac60408301856122cf565b81810360608301526131be8184613144565b905095945050505050565b6000815190506131d88161205a565b92915050565b6000602082840312156131f4576131f3612024565b5b6000613202848285016131c9565b9150509291505056fea26469706673582212204e1bcb0d59489c4fed9994937f8f4f91d9c3f59fb1a6ef6f07000ca93ba2a12c64736f6c63430008090033",
  "linkReferences": {},
  "deployedLinkReferences": {}
}